:100000000C9462000C948A000C948A000C948A0070
:100010000C948A000C948A000C948A000C948A0038
:100020000C948A000C948A000C948A000C94DB04D3
:100030000C948A000C948A000C948A000C948A0018
:100040000C9439040C948A000C94A9040C94830435
:100050000C948A000C948A000C948A000C948A00F8
:100060000C948A000C948A000000000024002700F1
:100070002A0000000000250028002B0000000000DE
:1000800023002600290004040404040404040202DA
:100090000202020203030303030301020408102007
:1000A0004080010204081020010204081020000012
:1000B0000008000201000003040700000000000027
:1000C00000009C0511241FBECFEFD8E0DEBFCDBFDE
:1000D00011E0A0E0B1E0ECE1F0E102C005900D928A
:1000E000AC33B107D9F722E0ACE3B1E001C01D9217
:1000F000A832B207E1F710E0C2E6D0E004C02197D1
:10010000FE010E940108C136D107C9F70E943406DA
:100110000C940C080C940000CF92DF92EF92FF92A7
:10012000DC01A03282E0B8070CF03EC0B7FD06C08B
:10013000A53BB1052CF0A4EBB0E002C0A0E0B0E01C
:100140008091260228E830E06901C81AD10887FDAD
:10015000D394CC0CDD1CCC0CDD1C0D2C000CEE085B
:10016000FF088091270228E532E0281B310987FD2E
:100170003395220F331F220F331FA901330F660B54
:10018000770B9A01AB012C193D094E095F090E94BA
:10019000BC0724EB30E040E050E00E949207C20E22
:1001A000D31EE41EF51ED601909125029C3098F5D1
:1001B0008091260248E850E0481B510987FD53957D
:1001C000440F551F440F551FA417B5078CF080919D
:1001D000270228E532E0281B310987FD3395220FDD
:1001E000331F220F331FAD012A173B070CF4A9015F
:1001F00042505109440F551F2FB7F894892F90E0B2
:10020000FC01EE0FFF1F8E0F9F1FFC01EC51FE4FF4
:10021000528341832FBFFF90EF90DF90CF900895DE
:10022000833081F028F4813099F08230A1F0089574
:100230008730A9F08830B9F08430D1F48091800003
:100240008F7D03C0809180008F7780938000089518
:1002500084B58F7702C084B58F7D84BD0895809169
:10026000B0008F7703C08091B0008F7D8093B00085
:100270000895CF93DF93282F30E0F901E255FF4F27
:100280008491F901E656FF4FD491F901EA57FF4FE7
:10029000C491CC2391F081110E941001EC2FF0E069
:1002A000EE0FFF1FE458FF4FA591B491EC91ED23A1
:1002B00081E090E021F480E002C080E090E0DF91F6
:1002C000CF9108951F93CF93DF93282F30E0F9014A
:1002D000E255FF4F8491F901E656FF4FD491F901A1
:1002E000EA57FF4FC491CC23C1F0162F81110E9411
:1002F0001001EC2FF0E0EE0FFF1FEE58FF4FA5911D
:10030000B4919FB7F894111104C08C91D095D82363
:1003100002C0EC91DE2BDC939FBFDF91CF911F9148
:100320000895CF93DF9390E0FC01E656FF4F2491B0
:10033000FC01EA57FF4F8491882361F190E0880F18
:10034000991FFC01E859FF4FC591D491FC01EE586B
:10035000FF4FA591B491611109C09FB7F8948881AE
:10036000209582238883EC912E230BC0623061F4A8
:100370009FB7F8948881322F309583238883EC913E
:100380002E2B2C939FBF06C08FB7F894E8812E2B9D
:1003900028838FBFDF91CF9108958E3008F08E5063
:1003A0008770806480937C0080917A008064809361
:1003B0007A0080917A0086FDFCCF809178002091B0
:1003C000790090E0922B08953FB7F8948091430113
:1003D00090914401A0914501B091460126B5A89B9A
:1003E00005C02F3F19F00196A11DB11D3FBFBA2FC7
:1003F000A92F982F8827820F911DA11DB11DBC0127
:10040000CD0142E0660F771F881F991F4A95D1F7EB
:1004100008958F929F92AF92BF92CF92DF92EF9208
:10042000FF926B017C010E94E4014B015C01C1144D
:10043000D104E104F104F1F00E94E401DC01CB01FC
:1004400088199909AA09BB09883E9340A105B105FD
:1004500070F321E0C21AD108E108F10888EE880E95
:1004600083E0981EA11CB11CC114D104E104F10465
:1004700019F7DDCFFF90EF90DF90CF90BF90AF9056
:100480009F908F900895CF93DF93C3E0D0E061E019
:100490008CE00E94620162E370E080E090E00E94E4
:1004A000090260E08CE00E94620164E670E080E096
:1004B00090E00E940902219751F7DF91CF910895B2
:1004C000CF92DF92EF92FF920F931F93CF93DF9320
:1004D0006C017A018B01C0E0D0E0CE15DF0581F020
:1004E000D8016D918D01D601ED91FC910190F081C3
:1004F000E02DC6010995892B11F02196EECF7E01E2
:10050000C701DF91CF911F910F91FF90EF90DF9086
:10051000CF900895089580E090E00895FC01538DF8
:10052000448D252F30E0842F90E0821B930B5417CD
:1005300010F0CF96089501970895FC01918D828D5A
:10054000981761F0828DDF01A80FB11D5D968C9127
:10055000928D9F5F9F73928F90E008958FEF9FEF32
:100560000895FC01918D828D981731F0828DE80FEE
:10057000F11D858D90E008958FEF9FEF0895FC01A8
:10058000918D228D892F90E0805C9F4F821B910975
:100590008F739927089587E491E00E94BF0221E0BC
:1005A000892B09F420E0822F0895FC01848DDF015E
:1005B000A80FB11DA35ABF4F2C91848D90E00196D6
:1005C0008F739927848FA689B7892C93A089B189C5
:1005D0008C91837080648C93938D848D981306C066
:1005E0000288F389E02D80818F7D80830895EF92CA
:1005F000FF920F931F93CF93DF93EC0181E0888FDD
:100600009B8D8C8D981305C0E889F989808185FDC3
:1006100026C0F62E0B8D10E00F5F1F4F0F731127B2
:10062000E02E8C8DE8120CC00FB607FCFACFE889DB
:10063000F989808185FFF5CFCE010E94D502F1CFE7
:100640008B8DFE01E80FF11DE35AFF4FF0829FB73B
:10065000F8940B8FEA89FB89808180620AC09FB77A
:10066000F894EE89FF896083E889F9898081837035
:10067000806480839FBF81E090E0DF91CF911F91E4
:100680000F91FF90EF900895CF93DF93EC01888D49
:100690008823C9F0EA89FB89808185FD05C0A88986
:1006A000B9898C9186FD0FC00FB607FCF5CF80810C
:1006B00085FFF2CFA889B9898C9185FFEDCFCE0156
:1006C0000E94D502E7CFDF91CF91089580E090E0BE
:1006D000892B29F00E94CB0281110C94000008950F
:1006E000CF93DF93EC0188810E94CD019D878C8799
:1006F0002FEF3FEF398728876A857B85FE01329689
:1007000020E030E041915191DA01A61BB70BA81708
:10071000B9073CF4460F571F8417950714F439871F
:1007200028872F5F3F4F2330310561F788859985F2
:10073000DF91CF910895009769F0FC0101900020AE
:10074000E9F73197AF01481B590BBC0187E491E0F1
:100750000C94600280E090E00895CF93DF930E94B4
:100760009B03EC0182E191E00E949B038C0F9D1F93
:10077000DF91CF9108958F929F92AF92BF92CF92C7
:10078000DF92EF92FF920F931F93CF93DF93CDB73A
:10079000DEB7A1970FB6F894DEBF0FBECDBF6C01D8
:1007A000990FEE08FF08F7FE2BC06DE287E491E099
:1007B0000E94F7028C0122273327A9012C193D0939
:1007C0004E095F0919A2CE0181967C019AE0892E1B
:1007D000912CA12CB12CCA01B901A50194010E9450
:1007E000C407605DF70162937F0121153105410562
:1007F000510589F7CF010E949B03080F191F1EC0E6
:10080000A701960119A28E010F5D1F4F8AE0C82E25
:10081000D12CE12CF12CCA01B901A70196010E944B
:10082000C407605DF80162938F0121153105410510
:10083000510589F7CF010E949B038C0182E191E071
:100840000E949B03800F911FA1960FB6F894DEBF04
:100850000FBECDBFDF91CF911F910F91FF90EF9011
:10086000DF90CF90BF90AF909F908F9008950E949F
:1008700007081F920F920FB60F9211242F933F93E8
:100880008F939F93AF93BF9380913F0190914001CD
:10089000A0914101B091420130913E0123E0230F2C
:1008A0002D3720F40196A11DB11D05C026E8230FA8
:1008B0000296A11DB11D20933E0180933F019093AC
:1008C0004001A0934101B093420180914301909176
:1008D0004401A0914501B09146010196A11DB11DB1
:1008E0008093430190934401A0934501B093460146
:1008F000BF91AF919F918F913F912F910F900FBE1C
:100900000F901F9018951F920F920FB60F921124FF
:100910002F933F934F935F936F937F938F939F9307
:10092000AF93BF93EF93FF9387E491E00E94D502CA
:10093000FF91EF91BF91AF919F918F917F916F91B7
:100940005F914F913F912F910F900FBE0F901F908D
:1009500018951F920F920FB60F9211242F938F9319
:100960009F93EF93FF93E0915701F091580180819D
:10097000E0915D01F0915E0182FD12C09081809155
:1009800060018F5F8F7320916101821751F0E091B8
:100990006001F0E0E95BFE4F958F8093600101C03C
:1009A0008081FF91EF919F918F912F910F900FBEBA
:1009B0000F901F9018951F920F920FB60F9211244F
:1009C0002F933F934F935F936F937F938F939F9357
:1009D000AF93BF93EF93FF9380913C0187FF05C0D6
:1009E00010928500109284001BC020913C01022EC1
:1009F000000C330B8091080290E02817390784F42B
:100A000080913C01082E000C990BFC01EE0FFF1F9A
:100A10008E0F9F1FFC01EC51FE4F808186FD15C09B
:100A200080913C018F5F80933C0120913C01022E1C
:100A3000000C330B8091080290E028173907C4F4AA
:100A400080913C018C3064F113C080913C01082EF0
:100A5000000C990BFC01EE0FFF1F8E0F9F1FFC0176
:100A6000EC51FE4F808160E08F730E946201D8CF0D
:100A70008091840090918500049680349C4918F4FC
:100A800080E49CE905C080918400909185000496E3
:100A900090938900809388008FEF80933C013BC046
:100AA000209184003091850080913C01082E000C3B
:100AB000990BFC01EE0FFF1F8E0F9F1FFC01EC51E5
:100AC000FE4F81819281820F931F909389008093C2
:100AD000880080913C01082E000C990BFC01EE0F60
:100AE000FF1F8E0F9F1FFC01EC51FE4F808186FF80
:100AF00012C080913C01082E000C990BFC01EE0FF6
:100B0000FF1F8E0F9F1FFC01EC51FE4F808161E0A3
:100B10008F730E946201FF91EF91BF91AF919F91FE
:100B20008F917F916F915F914F913F912F910F9096
:100B30000FBE0F901F90189510924A011092490114
:100B400088EE93E0A0E0B0E080934B0190934C01DD
:100B5000A0934D01B0934E0184E091E09093480141
:100B60008093470185EC90E090935401809353016A
:100B700084EC90E0909356018093550180EC90E0D6
:100B8000909358018093570181EC90E090935A0123
:100B90008093590182EC90E090935C0180935B011B
:100BA00086EC90E090935E0180935D01109260016D
:100BB000109261011092620110926301809108020B
:100BC0008C30A0F491E0980F909308028093250256
:100BD00090E0FC01EE0FFF1F8E0F9F1FFC01EC51F8
:100BE000FE4F88EB9BE09283818303C08FEF80935D
:100BF00025028EE090E0909318028093170288E21D
:100C000090E0909322028093210221E830E030931B
:100C10001A022093190226E032E030931C0220933E
:100C20001B0223E833E030931E0220931D022FE0C5
:100C300030E030930A0220930902909314028093CB
:100C4000130283E990E090930C0280930B0281EFF2
:100C500091E090930E0280930D0287E793E09093CA
:100C6000100280930F020895789484B5826084BD49
:100C700084B5816084BD85B5826085BD85B58160A0
:100C800085BD80916E00816080936E00109281001E
:100C900080918100826080938100809181008160D9
:100CA000809381008091800081608093800080919A
:100CB000B10084608093B1008091B0008160809326
:100CC000B00080917A00846080937A0080917A00ED
:100CD000826080937A0080917A00816080937A00AC
:100CE00080917A00806880937A001092C100809190
:100CF00025028C3008F053C061E085E00E9491012C
:100D000080912502E82FF0E09F01220F331FE20FB0
:100D1000F31FEC51FE4F9081907C9560908398E892
:100D2000909326029BE2909327026CE00E94F507C5
:100D30009CE0899FB001112440E050E09B01240F0A
:100D4000351FF901EE0FFF1F2E0F3F1FF901EC5168
:100D5000FE4F908196FD16C04F5F5F4F4C3051059E
:100D600069F781110FC01092800082E080938100AA
:100D70001092850010928400B19A80916F00826079
:100D800080936F00E0912502F0E0CF01880F991F5A
:100D9000E80FF91FEC51FE4F80818064808361E091
:100DA00085E00E94910162E082E00E94910162E090
:100DB00083E00E94910162E084E00E94910161E081
:100DC0008DE00E94910161E087E00E949101E09135
:100DD0005701F091580182E08083E0915301F09136
:100DE00054011082E0915501F09156018FEC8083FF
:100DF00010925F01E0915B01F0915C0186E08083DD
:100E0000E0915901F0915A01808180618083E091E5
:100E10005901F0915A01808188608083E0915901E5
:100E2000F0915A01808180688083E0915901F091AE
:100E30005A0180818F7D808382E00E943901892B55
:100E400011F461E001C060E08DE00E94620187E181
:100E500092E00E947003019739F489E092E00E94C9
:100E60007003019709F441C084E00E943901892B85
:100E700019F00E94430218C084EB90E00E948C009D
:100E800066E970E080E090E00E94090290913D01E7
:100E900081E0892780933D0161E087E00E94620143
:100EA0008EE191E00E94AD0387E192E00E94700321
:100EB0000E94BB0389E092E00E9470030E94BB0382
:100EC00087E291E00E94AD038EE00E94CD010E9476
:100ED000BB038FE00E94CD010E94BB0387E291E03B
:100EE0000E94AD030E946603A7CF84E00E943901EF
:100EF000892B09F0BECF80E090E00E948C0066E96B
:100F000070E080E090E00E94090290913D0181E054
:100F1000892780933D0160E087E00E94620185E1BE
:100F200091E0C0CF052E97FB1EF400940E94A90704
:100F300057FD07D00E94C40707FC03D04EF40C9461
:100F4000A90750954095309521953F4F4F4F5F4FE2
:100F5000089590958095709561957F4F8F4F9F4F25
:100F600008950E94E607A59F900DB49F900DA49F41
:100F7000800D911D11240895B7FF0C94B1070E94B4
:100F8000B107821B930B0895A1E21A2EAA1BBB1B6B
:100F9000FD010DC0AA1FBB1FEE1FFF1FA217B30745
:100FA000E407F50720F0A21BB30BE40BF50B661F5B
:100FB000771F881F991F1A9469F76095709580951F
:100FC00090959B01AC01BD01CF010895A29FB00196
:100FD000B39FC001A39F700D811D1124911DB29F6D
:100FE000700D811D1124911D0895991B79E004C095
:100FF000991F961708F0961B881F7A95C9F7809558
:101000000895EE0FFF1F0590F491E02D099481E003
:0C10100090E0F8940C940C08F894FFCFCA
:10101C0000000000F70260028E024403BF029D0232
:10102C00B1020D0A006F64656D63656E6F007A61C5
:10103C006D6D63656E6F002D2D2D2D2D2D2D2D2D90
:0C104C002D2D2D2D2D2D2D2D2D2D0000D6
:00000001FF
