:100000000C9462000C948A000C948A000C948A0070
:100010000C948A000C948A000C948A000C948A0038
:100020000C948A000C948A000C948A000C9493021D
:100030000C948A000C948A000C948A000C948A0018
:100040000C9449020C948A000C948A000C948A0047
:100050000C948A000C948A000C948A000C948A00F8
:100060000C948A000C948A000000000024002700F1
:100070002A0000000000250028002B0000000000DE
:1000800023002600290004040404040404040202DA
:100090000202020203030303030301020408102007
:1000A0004080010204081020010204081020000012
:1000B0000008000201000003040700000000000027
:1000C0000000520411241FBECFEFD8E0DEBFCDBF29
:1000D00011E0A0E0B1E0EAE2FAE002C005900D9282
:1000E000AC32B107D9F721E0ACE2B1E001C01D921A
:1000F000AB39B207E1F710E0C2E6D0E004C02197C7
:10010000FE010E940D05C136D107C9F70E945403B4
:100110000C9413050C940000CF92DF92EF92FF92A3
:10012000DC01A03282E0B8070CF03EC0B7FD06C08B
:10013000A53BB1052CF0A4EBB0E002C0A0E0B0E01C
:100140008091990128E830E06901C81AD10887FD3B
:10015000D394CC0CDD1CCC0CDD1C0D2C000CEE085B
:10016000FF0880919A0128E532E0281B310987FDBC
:100170003395220F331F220F331FA901330F660B54
:10018000770B9A01AB012C193D094E095F090E94BA
:10019000C80424EB30E040E050E00E949E04C20E10
:1001A000D31EE41EF51ED601909198019C3098F55F
:1001B0008091990148E850E0481B510987FD53950B
:1001C000440F551F440F551FA417B5078CF080919D
:1001D0009A0128E532E0281B310987FD3395220F6B
:1001E000331F220F331FAD012A173B070CF4A9015F
:1001F00042505109440F551F2FB7F894892F90E0B2
:10020000FC01EE0FFF1F8E0F9F1FFC01EC58FE4FED
:10021000528341832FBFFF90EF90DF90CF900895DE
:10022000833081F028F4813099F08230A1F0089574
:100230008730A9F08830B9F08430D1F48091800003
:100240008F7D03C0809180008F7780938000089518
:1002500084B58F7702C084B58F7D84BD0895809169
:10026000B0008F7703C08091B0008F7D8093B00085
:100270000895CF93DF93282F30E0F901E255FF4F27
:100280008491F901E656FF4FD491F901EA57FF4FE7
:10029000C491CC2391F081110E941001EC2FF0E069
:1002A000EE0FFF1FE458FF4FA591B491EC91ED23A1
:1002B00081E090E021F480E002C080E090E0DF91F6
:1002C000CF9108951F93CF93DF93282F30E0F9014A
:1002D000E255FF4F8491F901E656FF4FD491F901A1
:1002E000EA57FF4FC491CC23C1F0162F81110E9411
:1002F0001001EC2FF0E0EE0FFF1FEE58FF4FA5911D
:10030000B4919FB7F894111104C08C91D095D82363
:1003100002C0EC91DE2BDC939FBFDF91CF911F9148
:100320000895CF93DF9390E0FC01E656FF4F2491B0
:10033000FC01EA57FF4F8491882361F190E0880F18
:10034000991FFC01E859FF4FC591D491FC01EE586B
:10035000FF4FA591B491611109C09FB7F8948881AE
:10036000209582238883EC912E230BC0623061F4A8
:100370009FB7F8948881322F309583238883EC913E
:100380002E2B2C939FBF06C08FB7F894E8812E2B9D
:1003900028838FBFDF91CF9108953FB7F894809164
:1003A000700190917101A0917201B091730126B515
:1003B000A89B05C02F3F19F00196A11DB11D3FBF9D
:1003C000BA2FA92F982F8827820F911DA11DB11D2B
:1003D000BC01CD0142E0660F771F881F991F4A9527
:1003E000D1F708958F929F92AF92BF92CF92DF92F2
:1003F000EF92FF926B017C010E94CD014B015C01E9
:10040000C114D104E104F104F1F00E94CD01DC013A
:10041000CB0188199909AA09BB09883E9340A10517
:10042000B10570F321E0C21AD108E108F10888EEA5
:10043000880E83E0981EA11CB11CC114D104E104F4
:10044000F10419F7DDCFFF90EF90DF90CF90BF90D0
:10045000AF909F908F900895CF93DF93C3E0D0E04B
:1004600061E08CE00E94620162E370E080E090E075
:100470000E94F20160E08CE00E94620164E670E09C
:1004800080E090E00E94F201219751F7DF91CF9137
:1004900008951F920F920FB60F9211242F933F933E
:1004A0008F939F93AF93BF9380916C0190916D0157
:1004B000A0916E01B0916F0130916B0123E0230F89
:1004C0002D3720F40196A11DB11D05C026E8230F8C
:1004D0000296A11DB11D20936B0180936C01909336
:1004E0006D01A0936E01B0936F01809170019091A6
:1004F0007101A0917201B09173010196A11DB11D0E
:100500008093700190937101A0937201B093730175
:10051000BF91AF919F918F913F912F910F900FBEFF
:100520000F901F9018951F920F920FB60F921124E3
:100530002F933F934F935F936F937F938F939F93EB
:10054000AF93BF93EF93FF938091690187FF05C03D
:1005500010928500109284001BC020916901022E28
:10056000000C330B8091680190E02817390784F460
:1005700080916901082E000C990BFC01EE0FFF1F02
:100580008E0F9F1FFC01EC58FE4F808186FD15C029
:10059000809169018F5F8093690120916901022E2A
:1005A000000C330B8091680190E028173907C4F4E0
:1005B000809169018C3064F113C080916901082E2B
:1005C000000C990BFC01EE0FFF1F8E0F9F1FFC010B
:1005D000EC58FE4F808160E08F730E946201D8CF9B
:1005E0008091840090918500049680349C4918F491
:1005F00080E49CE905C08091840090918500049678
:1006000090938900809388008FEF809369013BC0AD
:10061000209184003091850080916901082E000CA2
:10062000990BFC01EE0FFF1F8E0F9F1FFC01EC5872
:10063000FE4F81819281820F931F90938900809356
:10064000880080916901082E000C990BFC01EE0FC7
:10065000FF1F8E0F9F1FFC01EC58FE4F808186FF0D
:1006600012C080916901082E000C990BFC01EE0F5D
:10067000FF1F8E0F9F1FFC01EC58FE4F808161E031
:100680008F730E946201FF91EF91BF91AF919F9193
:100690008F917F916F915F914F913F912F910F902B
:1006A0000FBE0F901F901895789484B5826084BD1A
:1006B00084B5816084BD85B5826085BD85B5816066
:1006C00085BD80916E00816080936E0010928100E4
:1006D000809181008260809381008091810081609F
:1006E0008093810080918000816080938000809160
:1006F000B10084608093B1008091B00081608093EC
:10070000B00080917A00846080937A0080917A00B2
:10071000826080937A0080917A00816080937A0071
:1007200080917A00806880937A001092C100809155
:1007300098018C3008F053C061E085E00E9491017F
:1007400080919801E82FF0E09F01220F331FE20F04
:10075000F31FEC58FE4F9081907C9560908398E851
:10076000909399019BE290939A016CE00E9401059D
:100770009CE0899FB001112440E050E09B01240FD0
:10078000351FF901EE0FFF1F2E0F3F1FF901EC5827
:10079000FE4F908196FD16C04F5F5F4F4C30510564
:1007A00069F781110FC01092800082E08093810070
:1007B0001092850010928400B19A80916F0082603F
:1007C00080936F00E0919801F0E0CF01880F991FAE
:1007D000E80FF91FEC58FE4F80818064808361E050
:1007E00085E00E94910162E082E00E94910162E056
:1007F00083E00E94910162E084E00E94910161E047
:100800008DE00E94910161E087E00E949101C0E0CB
:10081000D0E082E00E943901892B11F461E001C02F
:1008200060E08DE00E94620183E00E943901892B23
:10083000D1F484E00E943901892B91F480E090E0AA
:100840000E948C0066E970E080E090E00E94F20176
:1008500090916A0181E0892780936A0160E019C064
:100860000E942C0219C084E00E943901892BC1F733
:1008700084EB90E00E948C0066E970E080E090E0FC
:100880000E94F20190916A0181E0892780936A01B8
:1008900061E087E00E946201209709F4BACF0E94CC
:1008A0000000B7CF809168018C30A0F491E0980FE0
:1008B000909368018093980190E0FC01EE0FFF1F78
:1008C0008E0F9F1FFC01EC58FE4F88EB9BE092833C
:1008D000818303C08FEF809398018EE090E0909326
:1008E0004B0180934A0185E090E0909365018093ED
:1008F0006401E6E1F1E0ACE4B1E0819191918D9386
:100900009D9381E0EA32F807C1F78FE090E0909381
:100910002D0180932C0185E090E090934701809316
:100920004601E0E0F1E0AEE2B1E0819191918D937A
:100930009D9381E0E431F807C1F70895052E97FBF8
:100940001EF400940E94B50457FD07D00E94D00405
:1009500007FC03D04EF40C94B504509540953095A7
:1009600021953F4F4F4F5F4F08959095809570951B
:1009700061957F4F8F4F9F4F08950E94F204A59F6E
:10098000900DB49F900DA49F800D911D112408958A
:10099000B7FF0C94BD040E94BD04821B930B089505
:1009A000A1E21A2EAA1BBB1BFD010DC0AA1FBB1F73
:1009B000EE1FFF1FA217B307E407F50720F0A21BE5
:1009C000B30BE40BF50B661F771F881F991F1A9452
:1009D00069F760957095809590959B01AC01BD017C
:1009E000CF010895A29FB001B39FC001A39F700DD6
:1009F000811D1124911DB29F700D811D1124911D27
:100A00000895991B79E004C0991F961708F0961B6A
:100A1000881F7A95C9F780950895EE0FFF1F0590FE
:0A0A2000F491E02D0994F894FFCF43
:100A2A0000000000000000000000000000000000BC
:100A3A0000000000000000000000000000000000AC
:0C0A4A00000000000000000000000000A0
:00000001FF
